:0400000006EF0DF00A
:10100000003132334134353642373839432A3023C0
:10101000440001000A006400E803102701001000EA
:101020000001001000341602310117253032783AE1
:10103000253032783A253032782053746172742129
:1010400000253032782F253032782F253032782025
:1010500027232720746F0030313233343536373848
:101060003961626364656600746865206F706572DB
:101070006174696F6E2100596F7520686176652013
:10108000626567756E00272A2720746F2053544FBE
:101090005000536F7274696E672E2E2E0025640007
:0110A000004F
:1010A2000F0E1A6E000E1B6E74D1250E2218D8B4C4
:1010B20004D02250FAEC0CF06CD1000E216E000E1E
:1010C200206E000E1F6E03D01F840D4A0E2A0DC023
:1010D200F6FF0EC0F7FF0800F550300AD8B4F4D777
:1010E2000DC0F6FF0EC0F7FF0800F550E2EC0CF061
:1010F200D8A035D0000E216E000E206E20C001F067
:1011020021C002F0000E046E0A0E036ECFEC0CF04A
:1011120001C020F002C021F0D00E156EFF0E166E37
:101122000DC0F6FF0EC0F7FF0800F550176E186AE3
:101132001550172616501822175020261850212213
:101142000D4A0E2A0DC0F6FF0EC0F7FF0800F5503B
:10115200E2EC0CF0D8A003D0D1D71F8E17D00DC06F
:10116200F6FF0EC0F7FF0D4A0E2A0800F5CF22F057
:101172002250000AD8B41200640AD8B407D00D0A6B
:10118200D8B404D0110AD8B4E8D703D11FBE15D001
:101192001AC0D9FF1BC0DAFFDECF1DF0DDCF1EF073
:1011A200020E1A26000E1B221EAE44D0030E1F1280
:1011B2001D6C1E1ED8B01E2A3DD01AC0D9FF1BC0FE
:1011C200DAFFDECF1DF0DDCF1EF0020E1A26000E72
:1011D2001B2230D0010E226E050E2218D8B432D056
:1011E2002250020D120EF324F66E100EF420F76E4A
:1011F2000900F5501D5C0900F5501E58D8A022D0F8
:10120200222AEAD7010E226E040E2218D8B41AD06E
:101212002250020D1C0EF324F66E100EF420F76E0F
:101222000900F5501D5C0900F5501E58D8A00AD0DF
:10123200222AEAD71F50800B000AD8B4CBD7800AE3
:10124200D8B4E0D720502110D8B409D01FC015F06F
:10125200030E1516D8B403D02006D8A02106800E9E
:1012620022BE7F0E156E2050225C2150800A155836
:10127200D8B007D02250205E000E22BEFF0E215AA7
:1012820004D0000E216E000E206E1FA414D01FC0C9
:1012920015F0030E1516D8B403D02D0EFAEC0CF08F
:1012A20020502110D8B41ED0300EFAEC0CF02006DB
:1012B200D8A02106F5D720502110D8B40AD0200E8C
:1012C200FAEC0CF02006D8A0210620502110D8A458
:1012D200F6D71FC015F0030E1516D8B403D02D0E85
:1012E200FAEC0CF022C01CF050D01C50020D120E71
:1012F200F324F66E100EF420F76E0900F5CF03F01A
:101302000A00F5CF04F01DC001F01EC002F003EC8C
:101312000CF001C008F002C009F0000E0B6E0A0EBC
:101322000A6E9BEC0CF00850300F226E2BD01DC0C1
:1013320001F01EC002F01C50020D1C0EF324F66ECA
:10134200100EF420F76E0900F5CF03F00A00F5CF76
:1013520004F003EC0CF001500F0B196E1950010D43
:10136200570EF324F66E100EF420F76E0800F5CF38
:1013720022F008D01F50800B000AD8B4B6D7800ADA
:10138200D8B4D5D72250FAEC0CF01C061C28D8A4ED
:10139200F1D70DC0F6FF0EC0F7FF0D4A0E2A080066
:1013A200F5CF22F02250D8B412007FD6926893680B
:1013B200000E946E000E956E000E966E000E896EF3
:1013C200000E8A6E000E8B6E000E8C6E000E8D6EFD
:1013D200000EC26EC168F19E53EC0CF0010E00ECDF
:1013E2000DF0100E0E6E270E0F6E000E106E000E18
:1013F200116ED6EC0BF006D02A0E236E000E246E70
:10140200FBEC0AF081A2F8D781380F0B0F0B286E84
:10141200296A010E2824F66E100E2920F76E0800A4
:10142200F550230AD8A4E8D7310E046E000E056EDB
:101432009DEC0BF0010E00EC0DF053EC0CF0800E65
:1014420000EC0DF0770E0D6E100E0E6E51EC08F0E2
:10145200C00E00EC0DF0680E0D6E100E0E6E51EC0B
:1014620008F0000E026E030E016E79EC0CF0010E14
:1014720000EC0DF053EC0CF0800E00EC0DF0920E2F
:101482000D6E100E0E6E51EC08F0C00E00EC0DF059
:10149200860E0D6E100E0E6E51EC08F081A2FED774
:1014A20081380F0B0F0B286E296A010E2824F66E65
:1014B200100E2920F76E0800F5502A0AD8A4EED79C
:1014C200380E046E000E056E9DEC0BF0010E00EC62
:1014D2000DF053EC0CF0800E00EC0DF0380E076EA0
:1014E200000E086E310E096E000E0A6E92EC0AF0C2
:1014F20007C03FF008C040F09D0E0D6E100E0E6E3C
:101502003FC00FF040C010F051EC08F0000E026E28
:10151200050E016E79EC0CF0010E00EC0DF000EFFF
:1015220000F020EE02F00950D9260A50DA22DF50EC
:101532000B6E0C6A0B1E0C1E0B4A0C2A20EE02F0DC
:101542000750D9260850DA22DF500D6E0D500B24B9
:10155200016E000E0C20026E0E0E046E100E036E53
:10156200CFEC0CF001C00FF002C010F020EE01F041
:101572000950D9260A50DA22DF500B6E0C6A0B1E74
:101582000C1E0B4A0C2A20EE01F00750D9260850F7
:10159200DA22DF500D6E0D500B24016E000E0C206E
:1015A200026E000E046E3C0E036ECFEC0CF0015086
:1015B2000F260250102209C0D9FF0AC0DAFFDF50FD
:1015C2000B6E0C6A0B1E0C1E0B4A0C2A07C0D9FFAD
:1015D20008C0DAFFDF500D6E0E6A0B500D260C505C
:1015E2000E220D500F260E5010220FC007F010C011
:1015F20008F0120023C004F024C005F09DEC0BF0AB
:10160200800E00EC0DF0410E0D6E100E0E6E20EEEF
:1016120006F02350D9262450DA22DF50256E2550B9
:101622000F6E106A20EE05F02350D9262450DA22DC
:10163200DF50266E2650116E126A20EE04F02350FF
:10164200D9262450DA22DF50276E2750136E146AEF
:1016520051EC08F0C00E00EC0DF02B0E0D6E100ECA
:101662000E6E20EE02F02350D9262450DA22DF50EB
:10167200256E25500F6E106A20EE01F02350D926F8
:101682002450DA22DF50266E2650116E126A23C0D1
:10169200D9FF24C0DAFFDF50276E2750136E146A79
:1016A20051EC08F01A0E256EF80EE82EFED7252E04
:1016B200FCD700D01200000E096E000E0A6E000E5A
:1016C2000B6E000E0C6E0550061007100810D8B4F1
:1016D2002AD0010E0D6E06D0D89005360636073692
:1016E20008360D2A08AEF8D7D89009360A360B36D6
:1016F2000C360550015C065002580750035808503A
:101702000458D8A009D00550015E0650025A07506D
:10171200035A0850045A0980D89008320732063218
:1017220005320D2EE1D709C001F00AC002F00BC04C
:1017320003F00CC004F0120014EC0DF0000E036E66
:10174200D00E026E0BEC0DF0000E036E000E026E58
:101752000BEC0DF010EC0DF014EC0DF0000E036E1E
:10176200D10E026E0BEC0DF0000E066E050E066435
:1017720001D00ED00650010DF3500424D96EF4505E
:101782000520DA6E010EBCEC0CF0DF6E062AEED7F5
:1017920020EE06F00450D9260550DA22000EBCECE9
:1017A2000CF0DF6E10EC0DF01200000EC76E280E6A
:1017B200C66E000EC56E000E016E120E026E7A0E1D
:1017C200036E000E046E0EC012F00FC013F010C0B4
:1017D20014F011C015F0020ED890123613361436DA
:1017E2001536E82EF9D712C005F013C006F014C062
:1017F20007F015C008F05CEC0BF00104C86E94868B
:1018020094881200000E066E000E056E035004103E
:10181200D8B41CD0010E076E04D0D890033604361B
:10182200072A04AEFAD7D890053606360350015C73
:1018320004500258D8A005D00350015E0450025A49
:101842000580D89004320332072EEDD705C001F08F
:1018520006C002F01200026E0250F00B016E8C50B4
:101862000F0B8C6E01508C108C6E8C96140EE82E21
:10187200FED78C86140EE82EFED70238F00B026ECD
:101882000250F00B016E8C500F0B8C6E01508C10BD
:101892008C6E8C96140EE82EFED78C86140EE82ED3
:1018A200FED71200270E046EF50EE82EFED7042E88
:1018B200FCD700F0330E00EC0DF0330E00EC0DF00F
:1018C200320E00EC0DF0280E00EC0DF00F0E00ECC5
:1018D2000DF0060E00EC0DF0010E00EC0DF0270EDF
:1018E200046EF50EE82EFED7042EFCD700F012008F
:1018F200000E056E000E046E12D0000E066E630E10
:10190200066401D00AD01A0E036EF80EE82EFED736
:10191200032EFCD700D0062AF2D7044A052A045027
:10192200015C0250800A036E0550800A0358D8A059
:101932001200E3D70A500B10D8B418D0010E0C6E67
:1019420004D0D8900A360B360C2A0BAEFAD70A50BE
:10195200085C0B500958D8A004D00A50085E0B50FE
:10196200095AD8900B320A320C2EF1D708C008F06F
:1019720009C009F01200026EF1EC0CF0C586F1EC20
:101982000CF0C9CF03F0F1EC0CF00250D8A402D055
:10199200C58A01D0C59AC5880350120001500302BE
:1019A200F3CF05F0F4CF06F001500402F3500626FF
:1019B20002500302F350062605C001F006C002F0F1
:1019C2001200036E000E026E3A0E036005D02F0E57
:1019D200036402D0010E026E02C001F00130120057
:1019E200C7B4FED7C5CF01F01F0E0116D8B412003E
:1019F200F7D7036E8C8403502CEC0CF01200036EAC
:101A02008C9403502CEC0CF01200000EF86E0001C6
:101A1200D7EF09F0F1EC0CF002C0C9FF1200F1ECB3
:0E1A22000CF0C5841200F1EC0CF0C58012002F
:020000040020DA
:08000000FFFFFFFFFFFFFFFF00
:020000040030CA
:0E000000FF021F1EFF8381FF0FC00FE00F40A5
:00000001FF
