:04000000B0EF0BF062
:10100000003132334134353642373839432A3023C0
:1010100044000100100000010010003416023101EC
:1010200017253032783A253032783A253032782018
:1010300053746172742100253032782F2530327854
:101040002F253032782027232720746F003031324B
:1010500033343536373839616263646566007468E5
:1010600065206F7065726174696F6E2100596F75CC
:10107000206861766520626567756E00272A2720E3
:10108000746F2053544F5000536F7274696E672E03
:101090002E2E00000A0E146E000E156EE8D0250EDE
:1010A0001D18D8B404D01D50A4EC0BF0E0D0000EF5
:1010B0001C6E000E1B6E000E176E03D01784084ABC
:1010C000092A08C0F6FF09C0F7FF0800F550300AEA
:1010D000D8B4F4D708C0F6FF09C0F7FF0800F550F0
:1010E0008CEC0BF0D8A032D0000E1C6E000E1B6EE4
:1010F0001BC001F01CC002F0000E046E0A0E036E4D
:1011000066EC0BF001C01BF002C01CF0D00E106E9C
:10111000FF0E116E08C0F6FF09C0F7FF0800F5507A
:10112000126E136A105012261150132212501B26F1
:1011300013501C22084A092A08C0F6FF09C0F7FF0D
:101140000800F5508CEC0BF0D8B0D2D708C0F6FFF1
:1011500009C0F7FF084A092A0800F5CF1DF01D5005
:10116000000AD8B41200780AD8A481D014C0D9FFDC
:1011700015C0DAFFDECF18F0DDCF19F0020E14260D
:10118000000E1522010E1D6E040E1D18D8B412D0CB
:101190001D50020D120EF324F66E100EF420F76EA1
:1011A0000900F550185C0900F5501958D8A002D074
:1011B0001D2AEAD7800E1DBE7F0E106E1B501D5CCF
:1011C0001C50800A1058D8B007D01D501B5E000E6E
:1011D0001DBEFF0E1C5A04D0000E1C6E000E1B6EAE
:1011E00017A40BD01B501C10D8B415D0300EA4EC93
:1011F0000BF01B06D8A01C06F5D71B501C10D8B44A
:101200000AD0200EA4EC0BF01B06D8A01C061B5025
:101210001C10D8A4F6D71DC01AF025D018C001F0B4
:1012200019C002F01A50020D120EF324F66E100EC1
:10123000F420F76E0900F5CF03F00A00F5CF04F0B3
:10124000CEEC0AF001500F0B166E1650010D4D0E2C
:10125000F324F66E100EF420F76E0800F5CF1DF0A3
:101260001D50A4EC0BF01A061A28D8A4D7D708C032
:10127000F6FF09C0F7FF084A092A0800F5CF1DF05C
:101280001D50D8B412000BD7BEEC0BF0000E036E4D
:10129000D00E026EB5EC0BF0000E036E000E026E67
:1012A000B5EC0BF0BAEC0BF0BEEC0BF0000E036EDD
:1012B000D10E026EB5EC0BF0000E236E050E23640A
:1012C00001D00ED02350010DF3501E24D96EF450DE
:1012D0001F20DA6E010E79EC0BF0DF6E232AEED7B9
:1012E00020EE06F01E50D9261F50DA22000E79ECAF
:1012F0000BF0DF6EBAEC0BF0800EAAEC0BF0370EA1
:10130000086E100E096E20EE06F01E50D9261F50F2
:10131000DA22DF50206E20500A6E0B6A20EE05F0B4
:101320001E50D9261F50DA22DF50216E21500C6E3C
:101330000D6A20EE04F01E50D9261F50DA22DF502D
:10134000226E22500E6E0F6A4AEC08F0C00EAAEC14
:101350000BF0210E086E100E096E20EE02F01E50EA
:10136000D9261F50DA22DF50206E20500A6E0B6AF9
:1013700020EE01F01E50D9261F50DA22DF50216ED8
:1013800021500C6E0D6A1EC0D9FF1FC0DAFFDF505E
:10139000226E22500E6E0F6A4AEC08F01A0E206E72
:1013A000F80EE82EFED7202EFCD700D0120092684F
:1013B0009368000E946E000E956E000E966E000EF1
:1013C000896E000E8A6E000E8B6E000E8C6E000E03
:1013D0008D6E000EC26EC168F19E1EEC0BF0010E08
:1013E000AAEC0BF0100E0E6E270E0F6E000E106E94
:1013F000000E116EA1EC0AF006D0260E1E6E000E35
:101400001F6E44EC09F081A2F8D781380F0B0F0B47
:10141000246E256A010E2424F66E100E2520F76E28
:101420000800F550230AD8A4E8D7010EAAEC0BF067
:101430001EEC0BF0800EAAEC0BF06D0E086E100E79
:10144000096E4AEC08F0C00EAAEC0BF05E0E086EB6
:10145000100E096E4AEC08F0000E026E030E016ECB
:1014600044EC0BF0010EAAEC0BF01EEC0BF0800E1E
:10147000AAEC0BF0880E086E100E096E4AEC08F00C
:10148000C00EAAEC0BF07C0E086E100E096E4AEC32
:1014900008F081A2FED781380F0B0F0B246E256A4E
:1014A000010E2424F66E100E2520F76E0800F5506C
:1014B0002A0AD8A4EED7010EAAEC0BF000EF00F038
:1014C000000E096E000E0A6E000E0B6E000E0C6E02
:1014D0000550061007100810D8B42AD0010E0D6E62
:1014E00006D0D89005360636073608360D2A08AEDF
:1014F000F8D7D89009360A360B360C360550015C01
:10150000065002580750035808500458D8A009D074
:101510000550015E0650025A0750035A0850045AFB
:101520000980D89008320732063205320D2EE1D7F5
:1015300009C001F00AC002F00BC003F00CC004F0B7
:101540001200000EC76E280EC66E000EC56E000E8D
:10155000016E120E026E7A0E036E000E046E0EC045
:1015600012F00FC013F010C014F011C015F0020EED
:10157000D8901236133614361536E82EF9D712C025
:1015800005F013C006F014C007F015C008F060ECB9
:101590000AF00104C86E948694881200000E066E4C
:1015A000000E056E03500410D8B41CD0010E076E57
:1015B00004D0D89003360436072A04AEFAD7D89060
:1015C000053606360350015C04500258D8A005D0F9
:1015D0000350015E0450025A0580D8900432033251
:1015E000072EEDD705C001F006C002F01200026E12
:1015F0000250F00B016E8C500F0B8C6E01508C1052
:101600008C6E8C96140EE82EFED78C86140EE82E67
:10161000FED70238F00B026E0250F00B016E8C50B8
:101620000F0B8C6E01508C108C6E8C96140EE82E65
:10163000FED78C86140EE82EFED71200270E046EFD
:10164000F50EE82EFED7042EFCD700F0330EAAECE0
:101650000BF0330EAAEC0BF0320EAAEC0BF0280EB6
:10166000AAEC0BF00F0EAAEC0BF0060EAAEC0BF096
:10167000010EAAEC0BF0270E046EF50EE82EFED735
:10168000042EFCD700F01200000E056E000E046E52
:1016900012D0000E066E630E066401D00AD01A0E38
:1016A000036EF80EE82EFED7032EFCD700D0062AD4
:1016B000F2D7044A052A0450015C0250800A036EE6
:1016C0000550800A0358D8A01200E3D70150030246
:1016D000F3CF05F0F4CF06F001500402F3500626D4
:1016E00002500302F350062605C001F006C002F0C6
:1016F0001200026E9BEC0BF0C5869BEC0BF0C9CF81
:1017000003F09BEC0BF00250D8A402D0C58A01D0A4
:10171000C59AC58803501200036E000E026E3A0E81
:10172000036005D02F0E036402D0010E026E02C0CA
:1017300001F001301200C7B4FED7C5CF01F01F0E73
:101740000116D8B41200F7D7036E8C840350F7EC5F
:101750000AF01200036E8C940350F7EC0AF01200AA
:10176000000EF86E0001D7EF09F09BEC0BF002C001
:10177000C9FF12009BEC0BF0C58412009BEC0BF030
:04178000C58012000E
:020000040020DA
:08000000FFFFFFFFFFFFFFFF00
:020000040030CA
:0E000000FF021F1EFF8381FF0FC00FE00F40A5
:00000001FF
