:04000000FBEF70F0B2
:10E1C40002EC71F0C580120002EC71F0C5841200FB
:10E1D40002EC71F002C0C9FF1200036E8C9403506C
:10E1E4000AEC72F01200036E8C8403500AEC72F095
:10E1F40012007B6A7A6A000EF86E000176EF79F0FD
:10E20400C7B4FED7C5CF01F01F0E0116D8B4120053
:10E21400F7D7036E000E026E3A0E036005D02F0E80
:10E22400036402D0010E026E02C001F0013012003C
:10E23400015002100310D8B406D0000E011A000ECB
:10E24400021A800E031A01C001F002C002F003C0DA
:10E2540003F0120001500302F3CF05F0F4CF06F0EF
:10E2640001500402F350062602500302F35006261E
:10E2740005C001F006C002F01200800EEFEC70F051
:10E2840027C00DF028C00EF099EC7DF0C00EEFEC25
:10E2940070F029C00DF02AC00EF099EC7DF0120048
:10E2A400026E02EC71F0C58602EC71F0C9CF03F086
:10E2B40002EC71F00250D8A402D0C58A01D0C59AEC
:10E2C400C58803501200000E0C6E0AAE06D0096C0D
:10E2D4000A1ED8B00A2A010E0C6E09C001F00AC049
:10E2E40002F0036A8E0E046E0CC005F075EC74F037
:10E2F40001C009F002C00AF003C00BF012002B5059
:10E304002C102D10D8B406D0000E2B1A000E2C1A87
:10E31400800E2D1A28C01CF029C01DF02AC01EF042
:10E324002BC01FF02CC020F02DC021F0DDEC7AF0C2
:10E334001CC028F01DC029F01EC02AF012000A508B
:10E344000B10D8B418D0010E0C6E04D0D8900A3635
:10E354000B360C2A0BAEFAD70A50085C0B5009583E
:10E36400D8A004D00A50085E0B50095AD8900B323A
:10E374000A320C2EF1D708C008F009C009F01200C7
:10E38400000E056E000E046E12D0000E066E630EB3
:10E39400066401D00AD01A0E036EF80EE82EFED7DA
:10E3A400032EFCD700D0062AF2D7044A052A0450CB
:10E3B400015C0250800A036E0550800A0358D8A0FD
:10E3C4001200E3D7270E046EF50EE82EFED7042EB6
:10E3D400FCD700F0330EEFEC70F0330EEFEC70F07E
:10E3E400320EEFEC70F0280EEFEC70F00F0EEFEC45
:10E3F40070F0060EEFEC70F0010EEFEC70F0270EEB
:10E40400046EF50EE82EFED7042EFCD700F01200A1
:10E41400026E0250F00B016E8C500F0B8C6E01508B
:10E424008C108C6E8C96140EE82EFED78C86140EEF
:10E43400E82EFED70238F00B026E0250F00B016E8C
:10E444008C500F0B8C6E01508C108C6E8C96140EAD
:10E45400E82EFED78C86140EE82EFED71200000E8E
:10E46400066E000E056E03500410D8B41CD0010EC5
:10E47400076E04D0D89003360436072A04AEFAD7C0
:10E48400D890053606360350015C04500258D8A0D3
:10E4940005D00350015E0450025A0580D89004321E
:10E4A4000332072EEDD705C001F006C002F01200BA
:10E4B400000EC76E280EC66E000EC56E000E016EED
:10E4C400120E026E7A0E036E000E046E0EC012F06F
:10E4D4000FC013F010C014F011C015F0020ED89044
:10E4E4001236133614361536E82EF9D712C005F055
:10E4F40013C006F014C007F015C008F062EC73F006
:10E504000104C86E9486948812008E0E116E06D093
:10E51400D8900C320B320A320932112A000E091437
:10E524000D6E000E0A140E6E000E0B140F6EFF0E0D
:10E534000C14106E0D500E100F101010D8A4E8D744
:10E5440009C001F00AC002F00BC003F011C004F0CE
:10E55400000E056E75EC74F001C009F002C00AF0FB
:10E5640003C00BF01200000E066E02AE06D0016C62
:10E57400021ED8B0022A010E066E04AE04D0036C4B
:10E58400041ED8B0042A03500410D8B418D0010EC5
:10E59400056E04D0D89003360436052A04AEFAD7A3
:10E5A4000350015C04500258D8A004D00350015E0B
:10E5B4000450025AD89004320332052EF1D7065083
:10E5C400D8B404D0016C021ED8B0022A01C001F0F4
:10E5D40002C002F01200E2EC70F0000E036ED00EE6
:10E5E400026EEAEC70F0000E036E000E026EEAECAE
:10E5F40070F0E6EC70F0E2EC70F0000E036ED10EF9
:10E60400026EEAEC70F0000E066E050E066401D090
:10E614000ED00650010DF3500424D96EF450052099
:10E62400DA6E010E52EC71F0DF6E062AEED720EEA0
:10E6340006F00450D9260550DA22000E52EC71F08F
:10E64400DF6EE6EC70F01200000E406E8E0E3F6E30
:10E654003AAE11D03A1E391E381E376C000E3822DD
:10E6640039223A22010E406E06D0D8903A3239321D
:10E67400383237323F2A000E37143B6E000E3814FE
:10E684003C6E000E39143D6EFF0E3A143E6E3B5044
:10E694003C103D103E10D8A4E8D737C001F038C074
:10E6A40002F039C003F03FC004F040C005F075EC3F
:10E6B40074F001C037F002C038F003C039F0120022
:10E6C400000E096E000E0A6E000E0B6E000E0C6E2C
:10E6D4000550061007100810D8B42AD0010E0D6E8C
:10E6E40006D0D89005360636073608360D2A08AE09
:10E6F400F8D7D89009360A360B360C360550015C2B
:10E70400065002580750035808500458D8A009D09E
:10E714000550015E0650025A0750035A0850045A25
:10E724000980D89008320732063205320D2EE1D71F
:10E7340009C001F00AC002F00BC003F00CC004F0E1
:10E744001200000E0C6E0AAE06D0096C0A1ED8B078
:10E754000A2A010E0C6E08AE06D0076C081ED8B04B
:10E76400082A010E0C1A000E0E6E000E0D6E0950D2
:10E774000A10D8B41CD0010E0B6E04D0D890093600
:10E784000A360B2A0AAEFAD7D8900D360E3609503F
:10E79400075C0A500858D8A005D00950075E0A50F3
:10E7A400085A0D80D8900A3209320B2EEDD70C503E
:10E7B400D8B404D00D6C0E1ED8B00E2A0DC007F0CC
:10E7C4000EC008F0120003AE16D001C007F002C05C
:10E7D40008F003C009F0071E081E091E072A000ED0
:10E7E40008220922000E0724016E000E0820026E82
:10E7F400800E0920036E06AE16D004C007F005C0D3
:10E8040008F006C009F0071E081E091E072A000E9C
:10E8140008220922000E0724046E000E0820056E4B
:10E82400800E0920066E000E011A000E021A800ED8
:10E83400031A000E041A000E051A800E061A04505C
:10E84400015C0550025806500358D8B002D0D89045
:10E854001200D8801200015002100310D8A40FD067
:10E8640004C0D9FF05C0DAFF000EDE6E000EDD6EB7
:10E87400000E016E000E026E000E036E12000350B5
:10E884007F0B066E076AD8900636073604C0D9FF98
:10E8940005C0DAFF06C0DEFF07C0DDFF02AE03D00D
:10E8A400066A062A01D0066A065004C0D9FF05C0CC
:10E8B400DAFFDE12000EDD1204C0D9FF05C0DAFF54
:10E8C400820EDE26FF0EDD2203800382038403868C
:10E8D4000388038A039C029E01C001F002C002F077
:10E8E40003C003F012000450D8B405D00150021044
:10E8F4000310D8A40CD0000E016E000E026E000EA0
:10E90400036E1200042AD890033202320132000E40
:10E914000114066E000E0214076EFE0E0314086E38
:10E92400065007100810D8B40CD0ECD7042A010EF6
:10E934000126000E0222000E0322D8900332023276
:10E944000132000E0114066E000E0214076EFF0E53
:10E954000314086E065007100810D8B406D0E6D782
:10E964000406D89001360236033602BE03D0020EE6
:10E974000460F6D704A0029ED89004320450031217
:10E984000550D8A4038E01C001F002C002F003C0F8
:10E9940003F0120027C004F028C005F0EDEC72F07B
:10E9A400800EEFEC70F0260E0D6EFF0E0E6E20EE54
:10E9B40006F02750D9262850DA22DF50296E295034
:10E9C4000F6E106A20EE05F02750D9262850DA225F
:10E9D400DF502A6E2A50116E126A20EE04F027507E
:10E9E400D9262850DA22DF502B6E2B50136E146A6E
:10E9F40099EC7DF0C00EEFEC70F0100E0D6EFF0E72
:10EA04000E6E20EE02F02750D9262850DA22DF506D
:10EA1400296E29500F6E106A20EE01F02750D92676
:10EA24002850DA22DF502A6E2A50116E126A27C04B
:10EA3400D9FF28C0DAFFDF502B6E2B50136E146AF7
:10EA440099EC7DF01A0E296EF80EE82EFED7292EC9
:10EA5400FCD700D01200345035103610D8A407D09B
:10EA6400000E346E000E356E000E366E12003650F7
:10EA74007F0B396E3A6AD89039363A363950372690
:10EA84003A50382235AE03D0396A392A01D0396A6E
:10EA940039503726000E382238AE0BD0000E7B6E6C
:10EAA400220E7A6E000E346E000E356E000E366E37
:10EAB400120038BE15D03804D8A012D0000E7B6ED8
:10EAC400220E7A6E36AE06D0FF0E346E7F0E356E91
:10EAD400FF0EEDD7FF0E346E7F0E356E7F0EE7D737
:10EAE400383438303A6E3730396E36503918800B36
:10EAF4003918366E37C039F0010E391639323932C9
:10EB0400355039187F0B3918356E34C034F035C0A0
:10EB140035F036C036F012002DC001F02EC002F0E0
:10EB2400000E046E030E036E2CEC71F02BC02FF05C
:10EB34002CC030F001502F26025030222FC0F6FF97
:10EB440030C0F7FF0900F5CF31F00900F5CF32F0FE
:10EB54000A00F5CF33F03ED031C010F032C011F0CE
:10EB640033C012F028C00DF029C00EF02AC00FF0F7
:10EB7400D9EC76F00DC01CF00EC01DF00FC01EF0D5
:10EB8400000E046E030E036E2D06D8A02E062DC0B3
:10EB940001F02EC002F02CEC71F02BC02FF02CC031
:10EBA40030F001502F26025030222FC0F6FF30C023
:10EBB400F7FF0900F5CF1FF00900F5CF20F00A0098
:10EBC400F5CF21F0DDEC7AF01CC031F01DC032F03D
:10EBD4001EC033F02D502E10D8A4BED731C028F05B
:10EBE40032C029F033C02AF0120041C001F042C003
:10EBF40002F043C003F0470E046E000E056E2DECC8
:10EC040074F048AE10D043AE07D0000E416E800EB3
:10EC1400426EBF0E436E1200000E416E000E426E35
:10EC2400000E436E1200485004E1150E475CD8A054
:10EC340007D041C041F042C042F043C043F012004B
:10EC440041C028F042C029F043C02AF053EC77F0C9
:10EC540028C037F029C038F02AC039F02BC03AF068
:10EC640026EC73F037C044F038C045F039C046F0A4
:10EC740041C001F042C002F043C003F044C004F0BC
:10EC840045C005F046C006F0E5EC73F0D8B015D0E9
:10EC940044C01CF045C01DF046C01EF0000E1F6E9F
:10ECA400800E206EBF0E216EDDEC7AF01CC041F0A8
:10ECB4001DC042F01EC043F0120044C041F045C0E4
:10ECC40042F046C043F012000BC00FF0106A116A04
:10ECD4000A340F3601E310800F50166E1650D8A474
:10ECE40007D0000E096E000E0A6E000E0B6E1200A5
:10ECF4000EC00FF0106A116A0D340F3601E3108054
:10ED04000F50176E1750D8A407D0000E096E000ECE
:10ED14000A6E000E0B6E1200000E136E000E146EBF
:10ED2400000E156E1750890F165E0BC017F00E50AB
:10ED3400171A800E17160A8EFF0E0916FF0E0A16F2
:10ED4400000E0B160D8EFF0E0C16FF0E0D16000E88
:10ED54000E16180E126ED8901336143615360C5043
:10ED6400095C0D500A580E500B58D8A007D00C500F
:10ED7400095E0D500A5A0E500B5A1380D89009366A
:10ED84000A360B36122EE7D713C001F014C002F076
:10ED940015C003F016C004F017C005F075EC74F04C
:10EDA40001C009F002C00AF003C00BF012000FC04A
:10EDB40013F0146A156A0E34133601E314801350E9
:10EDC400166E1650D8A407D0000E0D6E000E0E6EEF
:10EDD400000E0F6E120012C013F0146A156A11347B
:10EDE400133601E3148013501B6E1B50D8A407D0B4
:10EDF400000E0D6E000E0E6E000E0F6E12001B50F4
:10EE04007B0F16260FC01BF012501B1A800E1B1608
:10EE14000E8E118EFF0E1016FF0E1116000E121616
:10EE2400000E176E000E186E000E196E070E1A6E85
:10EE34000DA006D010501726115018221250192276
:10EE4400D8900F320E320D32D89010361136123659
:10EE54001A2EEED7090E1A6E0DA006D010501726E2
:10EE64001150182212501922D8900F320E320D323E
:10EE7400D8901932183217321A2EEED717C001F073
:10EE840018C002F019C003F016C004F01BC005F04E
:10EE940075EC74F001C00DF002C00EF003C00FF069
:10EEA40012002AC02CF02D6A2E6A29342C3601E374
:10EEB4002D802C50366E3650D8A409D0000E286E02
:10EEC400000E296E000E2A6E000E2B6E1200170E15
:10EED4002C6E28C02DF029C02EF02AC02FF02C282B
:10EEE400306E04D0D8902F322E322D32302EFAD7F5
:10EEF4002D50316E298EFF0E2816FF0E2916000E96
:10EF04002A162850326E2950336E2A50346E356AD0
:10EF14008E0E365E36AE16D03650800A8F0FD8B0BD
:10EF240009D0000E286E000E296E000E2A6E000E07
:10EF34002B6E1200D8903532343233323232363EB0
:10EF4400F9D715D0170E36640FD0000E286E000EB8
:10EF5400296E000E2A6E000E2B6E1200D8903236E7
:10EF640033363436353636063650D8A4F7D73150D2
:10EF7400D8B408D0351E341E331E326C000E332232
:10EF84003422352232C028F033C029F034C02AF0AC
:10EF940035C02BF01200000E6E6E000E6D6E63C055
:10EFA40071F064C072F0000E706E000E6F6E68D067
:10EFB4000F0E71146B6E6C6A6DC009F06EC00AF0AE
:10EFC40065EC71F009C065F00AC066F00BC067F02B
:10EFD40065C055F066C056F067C057F0000E526E1B
:10EFE400200E536E410E546E24EC7AF052C068F039
:10EFF40053C069F054C06AF068C010F069C011F0E1
:10F004006AC012F06BC009F06CC00AF065EC71F0D4
:10F0140009C00DF00AC00EF00BC00FF0D9EC76F069
:10F024000DC01FF00EC020F00FC021F06FC009F01A
:10F0340070C00AF065EC71F009C01CF00AC01DF044
:10F044000BC01EF0DDEC7AF01CC028F01DC029F0C6
:10F054001EC02AF053EC77F028C06FF029C070F07E
:10F0640071C007F072C008F0000E0A6E100E096E2F
:10F07400A3EC73F007C071F008C072F06D4A6E2AF9
:10F0840071507210D8A494D76FC063F070C064F04C
:10F09400120036AE0BD0000E7B6E210E7A6E000E7F
:10F0A400346E000E356E000E366E1200345035107C
:10F0B4003610D8A40BD0000E7B6E220E7A6E000E92
:10F0C400346E000E356E000E366E1200000E106E99
:10F0D400000E116E400E126E370E046E000E056E99
:10F0E40034C001F035C002F036C003F02DEC74F0EA
:10F0F40001C00DF002C00EF003C00FF0D9EC76F0A1
:10F104000DC01CF00EC01DF00FC01EF0000E1F6ECF
:10F11400800E206EBF0E216EDDEC7AF01CC034F040
:10F124001DC035F01EC036F03706D8A0380634C0EE
:10F1340028F035C029F036C02AF0F50E2B6EFE0EED
:10F144002C6E000E2E6E080E2D6E8EEC75F028C0FF
:10F1540034F029C035F02AC036F0720E106E310E2C
:10F16400116E3F0E126E37C009F038C00AF065EC1C
:10F1740071F009C00DF00AC00EF00BC00FF0D9EC0D
:10F1840076F00DC01CF00EC01DF00FC01EF034C090
:10F194001FF035C020F036C021F0DDEC7AF01CC041
:10F1A40034F01DC035F01EC036F0120020EE02F01F
:10F1B4007350D9267450DA22DF50776E77500001ED
:10F1C400806F816B20EE02F07550D9267650DA22DA
:10F1D400DF50776E77500001826F836B20EE01F071
:10F1E4007350D9267450DA22DF50776E77500001BD
:10F1F400846F856B20EE01F07550D9267650DA22A3
:10F20400DF50776E77500001866F876B73C0D9FF2C
:10F2140074C0DAFFDF50776E77500001886F896B16
:10F2240075C0D9FF76C0DAFFDF50776E77500001E2
:10F234008A6F8B6B82C063F083C064F0CDEC77F08F
:10F2440063500008776E80C063F081C064F0CDEC39
:10F2540077F06350772400018C6F86C063F087C019
:10F2640064F0CDEC77F063500008776E84C063F0EF
:10F2740085C064F0CDEC77F06350772400018D6F86
:10F284008AC063F08BC064F0CDEC77F06350000863
:10F29400776E88C063F089C064F0CDEC77F063507A
:10F2A400772400018E6F010EEFEC70F0800EEFEC0E
:10F2B40070F0E4EC71F08CC001F0026A0E0E046E82
:10F2C400100E036E2CEC71F000018D513C0DF350C7
:10F2D4000126F450022200018E510124736E0001B4
:10F2E400000E0220746E120092689368000E946EF1
:10F2F400000E956E000E966E000E896E000E8A6EDC
:10F30400000E8B6E000E8C6E000E8D6E000EC26EA3
:10F31400C168F19EE4EC71F0010EEFEC70F0100E98
:10F324000E6E270E0F6E000E106E000E116E5AEC4C
:10F3340072F0010EEFEC70F0E4EC71F0800EEFEC83
:10F3440070F006D08F0E276E000E286ECCEC74F091
:10F3540081A2F8D781380F0B0F0B786E796AAD0E46
:10F364007824F66EFE0E7920F76E0800F550230A15
:10F37400D8A4E8D7960E046E000E056EEDEC72F07C
:10F38400010EEFEC70F0E4EC71F0800EEFEC70F035
:10F39400CC0E0D6EFF0E0E6E99EC7DF0C00EEFECF0
:10F3A40070F0AE0E0D6EFF0E0E6E99EC7DF0000E39
:10F3B400026E030E016EC2EC71F0010EEFEC70F000
:10F3C400E4EC71F0800EEFEC70F0F40E0D6EFF0EB5
:10F3D4000E6E99EC7DF0C00EEFEC70F0E80E0D6E41
:10F3E400FF0E0E6E99EC7DF081A2FED781380F0BD3
:10F3F4000F0B786E796AAD0E7824F66EFE0E7920C6
:10F40400F76E0800F5502A0AD8A4EED79D0E046EB4
:10F41400000E056EEDEC72F09D0E736E000E746EB0
:10F42400960E756E000E766ED8EC78F073C0A4F06C
:10F4340074C0A5F0A4C02BF0A5C02CF0A5EC7CF002
:10F4440000EF00F0000E5E6E525053105410D8A41A
:10F454001BD0000E016E000E026E000E036E55C02E
:10F4640004F056C005F057C006F0E5EC73F0D8A0E0
:10F4740004D0000E7B6E210E7A6E000E526E000ECA
:10F48400536E000E546E1200555056105710D8A4E7
:10F4940007D0000E526E800E536E3F0E546E120053
:10F4A40054AE40D055C028F056C029F057C02AF0B9
:10F4B40053EC77F028C05FF029C060F02AC061F0F7
:10F4C4002BC062F05FC009F060C00AF061C00BF0AD
:10F4D40062C00CF087EC72F05550091807E15650E1
:10F4E4000A1804E157500B18D8B40BD0000E7B6EE9
:10F4F400210E7A6E000E526E000E536E000E546E84
:10F5040012005F50010B5E6E52C001F053C002F056
:10F5140054C003F01AEC71F001C052F002C053F071
:10F5240003C054F052C034F053C035F054C036F028
:10F534004BEC78F034C058F035C059F036C05AF06E
:10F5440058C00DF059C00EF05AC00FF055C010F05D
:10F5540056C011F057C012F0D9EC76F00DC05BF034
:10F564000EC05CF00FC05DF05BC049F05CC04AF0B7
:10F574005DC04BF0B3EC7BF049C052F04AC053F08D
:10F584004BC054F05E50D8B40FD052C001F053C0F9
:10F5940002F054C003F01AEC71F001C052F002C042
:10F5A40053F003C054F0120052C052F053C053F051
:10F5B40054C054F012001EC022F0236A246A1D3481
:10F5C400223601E323802250276E21C022F0236AD1
:10F5D400246A2034223601E323802250266E2750E9
:10F5E400D8B40BD02650275CD8B00ED027500008D2
:10F5F4002624226E180E226407D01FC01CF020C0DF
:10F604001DF021C01EF012002650D8B40BD0275094
:10F61400265CD8B00ED0265000082724226E180E7F
:10F62400226407D01CC01CF01DC01DF01EC01EF0BB
:10F634001200060E256E1EBE258E21BE258C1D8E43
:10F64400FF0E1C16FF0E1D16000E1E16208EFF0E3A
:10F654001F16FF0E2016000E21162650275CD8B068
:10F664001BD0D8901F362036213626062750261860
:10F67400D8B40DD0250625C022F0070E2216D8B422
:10F6840006D0EFD7D8901E321D321C32272A2650BE
:10F694002718D8B41FD0F6D72750265CD8B01AD074
:10F6A400D8901C361D361E36270627502618D8B487
:10F6B4000DD0250625C022F0070E2216D8B406D098
:10F6C400EFD7D890213220321F32262A265027180D
:10F6D400D8A4F7D725AE0CD0FF0E1C1AFF0E1D1AA6
:10F6E400FF0E1E1A010E1C26000E1D22000E1E22E5
:10F6F40025AC0CD0FF0E1F1AFF0E201AFF0E211A84
:10F70400010E1F26000E2022000E2122000E256E5F
:10F714001C501F261D5020221E50212221AE0ED027
:10F72400FF0E1F1AFF0E201AFF0E211A010E1F26AC
:10F73400000E2022000E2122010E256E1FC001F0B2
:10F7440020C002F021C003F027C004F025C005F05A
:10F7540075EC74F001C01CF002C01DF003C01EF073
:10F76400120049504A104B10D8A407D0000E496E1D
:10F77400800E4A6E3F0E4B6E1200720E016E310EF9
:10F78400026E440E036E49C004F04AC005F04BC03B
:10F7940006F0E5EC73F0D8B00BD0000E7B6E220EB1
:10F7A4007A6EFF0E496E7F0E4A6E7F0E4B6E12000C
:10F7B40049C001F04AC002F04BC003F0490E046E88
:10F7C4003A0E056EC40E066EE5EC73F0D8B00BD09D
:10F7D400000E7B6E220E7A6E000E496E000E4A6E8B
:10F7E400000E4B6E12004BAE02D0010E01D0000E83
:10F7F400516E5150D8B40ED049C001F04AC002F045
:10F804004BC003F01AEC71F001C049F002C04AF099
:10F8140003C04BF049C00DF04AC00EF04BC00FF0CE
:10F82400AA0E106EB80E116E3F0E126ED9EC76F061
:10F834000DC049F00EC04AF00FC04BF049C041F072
:10F844004AC042F04BC043F0F7EC75F041C04CF0B5
:10F8540042C04DF043C04EF04CC028F04DC029F0DA
:10F864004EC02AF053EC77F028C04FF029C050F076
:10F8740049C028F04AC029F04BC02AF04FC009F013
:10F8840050C00AF065EC71F009C02BF00AC02CF0EE
:10F894000BC02DF081EC71F028C049F029C04AF06A
:10F8A4002AC04BF049C028F04AC029F04BC02AF0C6
:10F8B400D70E2B6EFE0E2C6E000E2E6E090E2D6EC4
:10F8C4008EEC75F028C034F029C035F02AC036F02B
:10F8D4004FC037F050C038F02DEC75F034C049F00B
:10F8E40035C04AF036C04BF05150D8B425D0492821
:10F8F4000EE17F0E4A180BE17F0E4B18D8A407D0F7
:10F90400000E496E000E4A6E000E4B6E1200000E81
:10F91400096E800E0A6E3F0E0B6E49C00CF04AC091
:10F924000DF04BC00EF066EC76F009C049F00AC049
:10F934004AF00BC04BF0120049C049F04AC04AF0EB
:10F944004BC04BF01200000E356E010EEFEC70F060
:10F954003550D8A426D0E4EC71F00AD0DB0E276E23
:10F96400FF0E286E5E0E296EFF0E2A6E3FEC71F0BC
:10F9740081B210D081380F0B0F0B2D6E2E6AAD0E95
:10F984002D24F66EFE0E2E20F76E0800F550410A67
:10F99400D8A4E4D781B2FED7010EEFEC70F0010ECB
:10F9A400C4D03504D8A426D0E4EC71F00AD09E0E5D
:10F9B400276EFF0E286E6E0E296EFF0E2A6E3FEC28
:10F9C40071F081B210D081380F0B0F0B2D6E2E6A9F
:10F9D400AD0E2D24F66EFE0E2E20F76E0800F550A7
:10F9E400410AD8A4E4D781B2FED7010EEFEC70F03F
:10F9F400020E9BD0020E3518D8A426D0E4EC71F088
:10FA04000AD08E0E276EFF0E286E7E0E296EFF0E14
:10FA14002A6E3FEC71F081B210D081380F0B0F0BBE
:10FA24002D6E2E6AAD0E2D24F66EFE0E2E20F76E70
:10FA34000800F550410AD8A4E4D781B2FED7010EDC
:10FA4400EFEC70F0030E71D0030E3518D8A480D7F4
:10FA5400E4EC71F052D02BC007F02CC008F00E0E6D
:10FA64000A6E100E096EA3EC73F007C02FF008C0E5
:10FA740030F00E0E046E100E036E2BC001F02CC07D
:10FA840002F0B5EC72F001C007F002C008F0000EFD
:10FA94000A6E3C0E096EA3EC73F007C031F008C087
:10FAA40032F02BC001F02CC002F0000E046E3C0EAC
:10FAB400036EB5EC72F001C033F002C034F0800E76
:10FAC400EFEC70F0BD0E0D6EFF0E0E6E2FC00FF03A
:10FAD40030C010F031C011F032C012F033C013F056
:10FAE40034C014F099EC7DF0C00EEFEC70F04D0EC4
:10FAF4000D6EFF0E0E6E99EC7DF081B210D0813840
:10FB04000F0B0F0B2D6E2E6AAD0E2D24F66EFE0E0E
:10FB14002E20F76E0800F550410AD8A49CD781B274
:10FB2400FED7010EEFEC70F0000E356E11D70F0EFC
:10FB34001C6E000E1D6EABD1250E2618D8B404D051
:10FB44002650F5EC70F0A3D1000E256E000E246E45
:10FB5400000E236E03D023840D4A0E2A0DC0F6FF37
:10FB64000EC0F7FF0800F550300AD8B4F4D70DC022
:10FB7400F6FF0EC0F7FF0800F5500BEC71F0D8A0AB
:10FB84006CD0000E256E000E246E24C001F025C03A
:10FB940002F0000E046E0A0E036E2CEC71F001C02C
:10FBA40024F002C025F0D00E156EFF0E166E0DC0A7
:10FBB400F6FF0EC0F7FF0800F550176E186A1550CF
:10FBC40017261650182217502426185025220D4A9D
:10FBD4000E2A0DC0F6FF0EC0F7FF0800F5500BEC1F
:10FBE40071F0D8A03AD0D1D7238E4ED024501E5CC9
:10FBF40025501F58D8B005D01E50245E1F50255ADA
:10FC040008D0000E256E000E246E03D0200EF5ECF5
:10FC140070F02406D8A025062428F8E12528D8B4B5
:10FC24000AD0F4D719C0D9FF1AC0DAFFDF50F5ECB7
:10FC340070F0194A1A2A1E06D8A01F061E28F2E1DF
:10FC44001F28D8B424D1EED7260E196E000E1A6ED2
:10FC5400000E1F6E010E1E6EC9D70DC0F6FF0EC03A
:10FC6400F7FF0D4A0E2A0800F5CF26F02650000AA9
:10FC7400D8B41200640AD8B407D00D0AD8B404D09A
:10FC8400110AD8B4B1D7E0D723BE15D01CC0D9FF10
:10FC94001DC0DAFFDECF21F0DDCF22F0020E1C26DC
:10FCA400000E1D2222AE44D0030E2312216C221E0C
:10FCB400D8B0222A3DD01CC0D9FF1DC0DAFFDECF48
:10FCC40021F0DDCF22F0020E1C26000E1D2230D0C2
:10FCD400010E266E050E2618D8B432D02650020D19
:10FCE400BE0EF324F66EFE0EF420F76E0900F550F6
:10FCF400215C0900F5502258D8A022D0262AEAD740
:10FD0400010E266E040E2618D8B41AD02650020D01
:10FD1400C80EF324F66EFE0EF420F76E0900F550BB
:10FD2400215C0900F5502258D8A00AD0262AEAD727
:10FD34002350800B000AD8B4CBD7800AD8B4E0D7BC
:10FD440024502510D8B409D023C015F0030E15167D
:10FD5400D8B403D02406D8A02506800E26BE7F0E74
:10FD6400156E2450265C2550800A1558D8B007D04B
:10FD74002650245E000E26BEFF0E255A04D0000E27
:10FD8400256E000E246E23A414D023C015F0030E98
:10FD94001516D8B403D02D0EF5EC70F024502510B0
:10FDA400D8B41ED0300EF5EC70F02406D8A0250689
:10FDB400F5D724502510D8B40AD0200EF5EC70F0F5
:10FDC4002406D8A0250624502510D8A4F6D723C08D
:10FDD40015F0030E1516D8B403D02D0EF5EC70F003
:10FDE40026C020F050D02050020DBE0EF324F66E33
:10FDF400FE0EF420F76E0900F5CF03F00A00F5CFEC
:10FE040004F021C001F022C002F031EC72F001C014
:10FE140008F002C009F0000E0B6E0A0E0A6EA1EC87
:10FE240071F00850300F266E2BD021C001F022C093
:10FE340002F02050020DC80EF324F66EFE0EF420DC
:10FE4400F76E0900F5CF03F00A00F5CF04F031ECAA
:10FE540072F001500F0B1B6E1B50010D3C0EF3246E
:10FE6400F66EFF0EF420F76E0800F5CF26F008D0EA
:10FE74002350800B000AD8B4B6D7800AD8B4D5D79B
:10FE84002650F5EC70F020062028D8A4F1D70DC038
:10FE9400F6FF0EC0F7FF0D4A0E2A0800F5CF26F034
:10FEA4002650D8B4120048D60031323341343536A6
:10FEB40042373839432A3023440001000A006400E1
:10FEC400E80310270100100000010010003416029E
:10FED40031011700803F72313FFE753E58633D95F6
:10FEE4001D3CC5AE3A79213994803793A735561510
:10FEF4003400000000803FF0FFBEE2A93E8376BEDE
:10FF0400AE2B3E3CC3BDD2133D78D3BB25303278F3
:10FF14003A253032783A253032782053746172743D
:10FF24002100253032782F253032782F2530327851
:10FF34002027232720746F0030313233343536378D
:10FF4400383961626364656600456E642D412074CE
:10FF54006F20676F206261636B00436F756E74205E
:10FF6400536F727465643A313000436174333A31CB
:10FF7400202020436174343A3000436174373A31AD
:10FF8400202020436174383A3000436174353A3399
:10FF9400202020436174363A3100436174313A338E
:10FFA400202020436174323A3400746865206F70F5
:10FFB40065726174696F6E210054696D653A20251C
:10FFC400643A25643A256400596F75206861766542
:10FFD40020626567756E004E6578742050616765B0
:10FFE4003A204100272A2720746F2053544F500091
:0CFFF400536F7274696E672E2E2E000091
:020000040020DA
:08000000FFFFFFFFFFFFFFFF00
:020000040030CA
:0E000000FF021F1EFF8381FF0FC00FE00F40A5
:00000001FF
